{
  "contractName": "Contracts_DB",
  "abi": [
    {
      "constant": true,
      "inputs": [
        {
          "name": "",
          "type": "uint256"
        }
      ],
      "name": "contracts",
      "outputs": [
        {
          "name": "id",
          "type": "uint256"
        },
        {
          "name": "contract_name",
          "type": "string"
        },
        {
          "name": "contract_address",
          "type": "string"
        }
      ],
      "payable": false,
      "stateMutability": "view",
      "type": "function"
    },
    {
      "constant": true,
      "inputs": [],
      "name": "contractsNumber",
      "outputs": [
        {
          "name": "",
          "type": "uint256"
        }
      ],
      "payable": false,
      "stateMutability": "view",
      "type": "function"
    },
    {
      "inputs": [],
      "payable": false,
      "stateMutability": "nonpayable",
      "type": "constructor"
    },
    {
      "anonymous": false,
      "inputs": [
        {
          "indexed": true,
          "name": "_contractEvent",
          "type": "uint256"
        }
      ],
      "name": "ContractEvent",
      "type": "event"
    },
    {
      "constant": false,
      "inputs": [
        {
          "name": "contract_name",
          "type": "string"
        },
        {
          "name": "c_address",
          "type": "string"
        }
      ],
      "name": "addContract",
      "outputs": [],
      "payable": false,
      "stateMutability": "nonpayable",
      "type": "function"
    },
    {
      "constant": false,
      "inputs": [
        {
          "name": "id",
          "type": "uint256"
        }
      ],
      "name": "removeContract",
      "outputs": [],
      "payable": false,
      "stateMutability": "nonpayable",
      "type": "function"
    }
  ],
  "bytecode": "0x608060405234801561001057600080fd5b506100bb6040805190810160405280600381526020017f5553410000000000000000000000000000000000000000000000000000000000815250606060405190810160405280602a81526020017f307830363433343538663839623434463143363033324141364337324633456681526020017f6137663134466335613000000000000000000000000000000000000000000000815250610214640100000000026401000000009004565b6101656040805190810160405280600781526020017f4765726d616e7900000000000000000000000000000000000000000000000000815250606060405190810160405280602a81526020017f307837356541333831366341613233634362423837323638383146333763353181526020017f4235424233636333373500000000000000000000000000000000000000000000815250610214640100000000026401000000009004565b61020f6040805190810160405280600781526020017f4c6562616e6f6e00000000000000000000000000000000000000000000000000815250606060405190810160405280602a81526020017f307866366235433366633046303164303063323566636462333435363637303481526020017f4631413461413632613500000000000000000000000000000000000000000000815250610214640100000000026401000000009004565b61034b565b60018054810180825560408051606081018252828152602080820187815282840187905260009485528482529290932081518155915180519194929361025f938501929101906102b0565b506040820151805161027b9160028401916020909101906102b0565b50506001546040519091507fa3edf5436c8947f34f79c91d9706af988e9b1357d70e1b1f1629f968ffe87be890600090a25050565b828054600181600116156101000203166002900490600052602060002090601f016020900481019282601f106102f157805160ff191683800117855561031e565b8280016001018555821561031e579182015b8281111561031e578251825591602001919060010190610303565b5061032a92915061032e565b5090565b61034891905b8082111561032a5760008155600101610334565b90565b6105538061035a6000396000f3006080604052600436106100615763ffffffff7c0100000000000000000000000000000000000000000000000000000000600035041663474da79a811461006657806349061757146101635780634d5a50f6146101fc5780637cca3b0614610223575b600080fd5b34801561007257600080fd5b5061007e60043561023b565b604051808481526020018060200180602001838103835285818151815260200191508051906020019080838360005b838110156100c55781810151838201526020016100ad565b50505050905090810190601f1680156100f25780820380516001836020036101000a031916815260200191505b50838103825284518152845160209182019186019080838360005b8381101561012557818101518382015260200161010d565b50505050905090810190601f1680156101525780820380516001836020036101000a031916815260200191505b509550505050505060405180910390f35b34801561016f57600080fd5b506040805160206004803580820135601f81018490048402850184019095528484526101fa94369492936024939284019190819084018382808284375050604080516020601f89358b018035918201839004830284018301909452808352979a9998810197919650918201945092508291508401838280828437509497506103719650505050505050565b005b34801561020857600080fd5b5061021161040d565b60408051918252519081900360200190f35b34801561022f57600080fd5b506101fa600435610413565b600060208181529181526040908190208054600180830180548551600293821615610100026000190190911692909204601f81018790048702830187019095528482529194929390928301828280156102d55780601f106102aa576101008083540402835291602001916102d5565b820191906000526020600020905b8154815290600101906020018083116102b857829003601f168201915b50505060028085018054604080516020601f60001961010060018716150201909416959095049283018590048502810185019091528181529596959450909250908301828280156103675780601f1061033c57610100808354040283529160200191610367565b820191906000526020600020905b81548152906001019060200180831161034a57829003601f168201915b5050505050905083565b6001805481018082556040805160608101825282815260208082018781528284018790526000948552848252929093208151815591518051919492936103bc93850192910190610445565b50604082015180516103d8916002840191602090910190610445565b50506001546040519091507fa3edf5436c8947f34f79c91d9706af988e9b1357d70e1b1f1629f968ffe87be890600090a25050565b60015481565b60008181526020819052604081208181559061043260018301826104c3565b6104406002830160006104c3565b505050565b828054600181600116156101000203166002900490600052602060002090601f016020900481019282601f1061048657805160ff19168380011785556104b3565b828001600101855582156104b3579182015b828111156104b3578251825591602001919060010190610498565b506104bf92915061050a565b5090565b50805460018160011615610100020316600290046000825580601f106104e95750610507565b601f016020900490600052602060002090810190610507919061050a565b50565b61052491905b808211156104bf5760008155600101610510565b905600a165627a7a72305820aaae2795241cfa8f2b0bf95cfc52eaa5bf2400458b195353a25a08762a3d24cc0029",
  "source": "pragma solidity ^0.4.0;\r\n\r\ncontract Contracts_DB { //Form the contract\r\n    struct Contract{\r\n      uint id;\r\n      string contract_name;\r\n      string contract_address;\r\n    }\r\n\r\n    mapping(uint => Contract) public contracts;\r\n\r\n    uint public contractsNumber; //how many contracts there are\r\n\r\n    event ContractEvent (\r\n        uint indexed _contractEvent\r\n    );\r\n\r\n    constructor() public{ //constructor\r\n      addContract(\"USA\", \"0x0643458f89b44F1C6032AA6C72F3Efa7f14Fc5a0\");\r\n      addContract(\"Germany\", \"0x75eA3816cAa23cCbB8726881F37c51B5BB3cc375\");\r\n      addContract(\"Lebanon\", \"0xf6b5C3fc0F01d00c25fcdb34566704F1A4aA62a5\");\r\n\r\n    }\r\n\r\n    function addContract (string contract_name, string c_address) public{\r\n      contractsNumber++; //increment the number of contracts\r\n      contracts[contractsNumber]=Contract(contractsNumber, contract_name, c_address);\r\n      ContractEvent(contractsNumber);\r\n    }\r\n\r\n    function removeContract (uint id) public{\r\n      delete contracts[id];\r\n    }\r\n\r\n}\r\n",
  "sourcePath": "C:\\Users\\Michel Bechara\\Desktop\\New Folder (2)\\Blockchain\\hdwalletDynamic\\contracts\\Contracts_DB.sol",
  "compiler": {
    "name": "solc",
    "version": "0.4.25+commit.59dbf8f1.Emscripten.clang"
  },
  "schemaVersion": "3.0.23",
  "updatedAt": "2020-05-09T21:46:46.906Z",
  "networkType": "ethereum",
  "devdoc": {
    "methods": {}
  },
  "userdoc": {
    "methods": {}
  }
}