{
  "contractName": "VotingSystem1",
  "abi": [
    {
      "constant": true,
      "inputs": [
        {
          "name": "",
          "type": "uint256"
        }
      ],
      "name": "candidates",
      "outputs": [
        {
          "name": "id",
          "type": "uint256"
        },
        {
          "name": "candidate_name",
          "type": "string"
        },
        {
          "name": "sumvotes",
          "type": "uint256"
        },
        {
          "name": "isMale",
          "type": "bool"
        }
      ],
      "payable": false,
      "stateMutability": "view",
      "type": "function"
    },
    {
      "constant": true,
      "inputs": [],
      "name": "candidatesNumber",
      "outputs": [
        {
          "name": "",
          "type": "uint256"
        }
      ],
      "payable": false,
      "stateMutability": "view",
      "type": "function"
    },
    {
      "constant": true,
      "inputs": [
        {
          "name": "",
          "type": "address"
        }
      ],
      "name": "voters",
      "outputs": [
        {
          "name": "",
          "type": "bool"
        }
      ],
      "payable": false,
      "stateMutability": "view",
      "type": "function"
    },
    {
      "inputs": [],
      "payable": false,
      "stateMutability": "nonpayable",
      "type": "constructor"
    },
    {
      "anonymous": false,
      "inputs": [
        {
          "indexed": true,
          "name": "_candidateId",
          "type": "uint256"
        }
      ],
      "name": "votedEvent",
      "type": "event"
    },
    {
      "anonymous": false,
      "inputs": [
        {
          "indexed": false,
          "name": "c",
          "type": "string"
        }
      ],
      "name": "voteCast",
      "type": "event"
    },
    {
      "constant": false,
      "inputs": [
        {
          "name": "candidate_name",
          "type": "string"
        },
        {
          "name": "isMale",
          "type": "bool"
        }
      ],
      "name": "addCandidate",
      "outputs": [],
      "payable": false,
      "stateMutability": "nonpayable",
      "type": "function"
    },
    {
      "constant": false,
      "inputs": [
        {
          "name": "id",
          "type": "uint256"
        }
      ],
      "name": "removeCandidate",
      "outputs": [],
      "payable": false,
      "stateMutability": "nonpayable",
      "type": "function"
    },
    {
      "constant": false,
      "inputs": [
        {
          "name": "id",
          "type": "uint256"
        },
        {
          "name": "candidate_name",
          "type": "string"
        },
        {
          "name": "isMale",
          "type": "bool"
        }
      ],
      "name": "modifyCandidate",
      "outputs": [],
      "payable": false,
      "stateMutability": "nonpayable",
      "type": "function"
    },
    {
      "constant": false,
      "inputs": [
        {
          "name": "_candidateId",
          "type": "uint256"
        }
      ],
      "name": "vote",
      "outputs": [],
      "payable": false,
      "stateMutability": "nonpayable",
      "type": "function"
    }
  ],
  "bytecode": "0x608060405234801561001057600080fd5b5060408051808201909152600681527f4d696368656c000000000000000000000000000000000000000000000000000060208201526100599060006401000000006100ee810204565b60408051808201909152600481527f496d61640000000000000000000000000000000000000000000000000000000060208201526100a19060016401000000006100ee810204565b60408051808201909152600781527f4368617262656c0000000000000000000000000000000000000000000000000060208201526100e99060016401000000006100ee810204565b61020a565b600280546001908101918290556040805160808101825283815260208082018781526000838501819052871515606085015295865284825292909420815181559151805191949293610146939085019291019061016f565b50604082015160028201556060909101516003909101805460ff19169115159190911790555050565b828054600181600116156101000203166002900490600052602060002090601f016020900481019282601f106101b057805160ff19168380011785556101dd565b828001600101855582156101dd579182015b828111156101dd5782518255916020019190600101906101c2565b506101e99291506101ed565b5090565b61020791905b808211156101e957600081556001016101f3565b90565b610638806102196000396000f3006080604052600436106100825763ffffffff7c01000000000000000000000000000000000000000000000000000000006000350416630121b93f811461008757806309e9d7e2146100a1578063298073d2146100b95780633477ee2e1461011657806366f5dd9e146101bc57806385209ce1146101e3578063a3ec138d14610245575b600080fd5b34801561009357600080fd5b5061009f600435610287565b005b3480156100ad57600080fd5b5061009f60043561031d565b3480156100c557600080fd5b506040805160206004803580820135601f810184900484028501840190955284845261009f943694929360249392840191908190840183828082843750949750505050913515159250610354915050565b34801561012257600080fd5b5061012e6004356103d5565b60408051858152908101839052811515606082015260806020808301828152865192840192909252855160a084019187019080838360005b8381101561017e578181015183820152602001610166565b50505050905090810190601f1680156101ab5780820380516001836020036101000a031916815260200191505b509550505050505060405180910390f35b3480156101c857600080fd5b506101d161048b565b60408051918252519081900360200190f35b3480156101ef57600080fd5b5060408051602060046024803582810135601f810185900485028601850190965285855261009f958335953695604494919390910191908190840183828082843750949750505050913515159250610491915050565b34801561025157600080fd5b5061027373ffffffffffffffffffffffffffffffffffffffff60043516610515565b604080519115158252519081900360200190f35b3360009081526020819052604090205460ff16156102a457600080fd5b6000811180156102b657506002548111155b15156102c157600080fd5b33600090815260208181526040808320805460ff191660019081179091558484529182905280832060020180549092019091555182917ffff3c900d938d21d0990d786e819f29b8d05c1ef587b462b939609625b684b1691a250565b60008181526001602081905260408220828155919061033e9083018261052a565b5060006002820155600301805460ff1916905550565b6002805460019081019182905560408051608081018252838152602080820187815260008385018190528715156060850152958652848252929094208151815591518051919492936103ac9390850192910190610571565b50604082015160028201556060909101516003909101805460ff19169115159190911790555050565b600160208181526000928352604092839020805481840180548651600296821615610100026000190190911695909504601f810185900485028601850190965285855290949193929091908301828280156104715780601f1061044657610100808354040283529160200191610471565b820191906000526020600020905b81548152906001019060200180831161045457829003601f168201915b50505050600283015460039093015491929160ff16905084565b60025481565b600083815260016020818152604080842060028101548251608081018452898152808501898152938101829052871515606082015295899052848452855182559151805192959491936104ea9392850192910190610571565b50604082015160028201556060909101516003909101805460ff191691151591909117905550505050565b60006020819052908152604090205460ff1681565b50805460018160011615610100020316600290046000825580601f10610550575061056e565b601f01602090049060005260206000209081019061056e91906105ef565b50565b828054600181600116156101000203166002900490600052602060002090601f016020900481019282601f106105b257805160ff19168380011785556105df565b828001600101855582156105df579182015b828111156105df5782518255916020019190600101906105c4565b506105eb9291506105ef565b5090565b61060991905b808211156105eb57600081556001016105f5565b905600a165627a7a7230582028900c34ce4ca5416fd116b9b3cf561a42be80682d225251be6f4b1a4be002d40029",
  "source": "pragma solidity ^0.4.0;\r\n\r\ncontract VotingSystem1 { //Form the candidate\r\n    struct Candidate{\r\n      uint id;\r\n      string candidate_name;\r\n      uint sumvotes;\r\n      bool isMale;\r\n    }\r\n\r\n    //in this mapping we store the accounts who have voted\r\n    mapping(address => bool) public voters;\r\n    mapping(uint => Candidate) public candidates; //Key-value pair (uint id as key)\r\n\r\n    uint public candidatesNumber; //how many candidates there are\r\n\r\n    // voted event to refresh the page after voting\r\n    event votedEvent (\r\n        uint indexed _candidateId\r\n    );\r\n\r\n    event voteCast(string c);\r\n\r\n    constructor() public{ //constructor\r\n      addCandidate(\"Michel\",false);\r\n      addCandidate(\"Imad\",true);\r\n      addCandidate(\"Charbel\",true);\r\n    }\r\n\r\n    function addCandidate (string candidate_name, bool isMale) public{\r\n      candidatesNumber++; //increment the number of candidates\r\n      candidates[candidatesNumber]=Candidate(candidatesNumber, candidate_name, 0, isMale);\r\n    }\r\n\r\n    function removeCandidate (uint id) public{\r\n      delete candidates[id];\r\n      //emit voteCast(candidates[0].candidate_name);\r\n      //emit voteCast(candidates[1].candidate_name);\r\n      //emit voteCast(candidates[2].candidate_name);\r\n      //emit voteCast(candidates[3].candidate_name);\r\n\r\n\r\n    }\r\n\r\n    function modifyCandidate (uint id, string candidate_name, bool isMale) public{\r\n      //candidates[id]=Candidate(id, candidate_name)\r\n      uint sumvotes = candidates[id].sumvotes;\r\n      candidates[id]= Candidate(id, candidate_name, sumvotes,isMale);\r\n    }\r\n\r\n    function vote(uint _candidateId) public{\r\n        //adress has not voted before\r\n        require(!voters[msg.sender]); //not in the mapping => has not voted before\r\n        //valid candidate\r\n        require(_candidateId > 0 && _candidateId<=candidatesNumber);\r\n        /*Know and save that this account has voted. Solidity allows us to know who is sending\r\n        this function through meta data (msg.sender)*/\r\n        voters[msg.sender] = true;\r\n        //increment vote count for correct candidate\r\n        candidates[_candidateId].sumvotes ++;\r\n\r\n        //trigger voted event\r\n        votedEvent(_candidateId);\r\n\r\n\r\n    }\r\n}\r\n",
  "sourcePath": "C:\\Users\\Michel Bechara\\Desktop\\New Folder (2)\\Blockchain\\hdwalletDynamic\\contracts\\VotingSystem1.sol",
  "compiler": {
    "name": "solc",
    "version": "0.4.25+commit.59dbf8f1.Emscripten.clang"
  },
  "schemaVersion": "3.0.23",
  "updatedAt": "2020-05-09T19:13:17.295Z",
  "networkType": "ethereum",
  "devdoc": {
    "methods": {}
  },
  "userdoc": {
    "methods": {}
  }
}